{
  "_format": "hh-sol-artifact-1",
  "contractName": "eAAts",
  "sourceName": "contracts/eAAts.sol",
  "abi": [
    {
      "inputs": [
        {
          "internalType": "contract IAAController",
          "name": "_aaController",
          "type": "address"
        },
        {
          "internalType": "address",
          "name": "_tokenAddress",
          "type": "address"
        },
        {
          "internalType": "uint256",
          "name": "_deliveryFee",
          "type": "uint256"
        }
      ],
      "stateMutability": "nonpayable",
      "type": "constructor"
    },
    {
      "anonymous": false,
      "inputs": [
        {
          "indexed": true,
          "internalType": "uint256",
          "name": "orderId",
          "type": "uint256"
        }
      ],
      "name": "DeliveryCompleted",
      "type": "event"
    },
    {
      "anonymous": false,
      "inputs": [
        {
          "indexed": true,
          "internalType": "uint256",
          "name": "orderId",
          "type": "uint256"
        },
        {
          "indexed": true,
          "internalType": "address",
          "name": "creator",
          "type": "address"
        },
        {
          "indexed": false,
          "internalType": "uint256",
          "name": "minParticipants",
          "type": "uint256"
        },
        {
          "indexed": false,
          "internalType": "enum IeAAts.FeeType",
          "name": "feeType",
          "type": "uint8"
        }
      ],
      "name": "OrderCreated",
      "type": "event"
    },
    {
      "anonymous": false,
      "inputs": [
        {
          "indexed": true,
          "internalType": "uint256",
          "name": "orderId",
          "type": "uint256"
        }
      ],
      "name": "OrderDeliveryStarted",
      "type": "event"
    },
    {
      "anonymous": false,
      "inputs": [
        {
          "indexed": true,
          "internalType": "uint256",
          "name": "orderId",
          "type": "uint256"
        },
        {
          "indexed": true,
          "internalType": "address",
          "name": "participant",
          "type": "address"
        },
        {
          "indexed": false,
          "internalType": "uint256",
          "name": "amount",
          "type": "uint256"
        }
      ],
      "name": "OrderJoined",
      "type": "event"
    },
    {
      "anonymous": false,
      "inputs": [
        {
          "indexed": true,
          "internalType": "address",
          "name": "previousOwner",
          "type": "address"
        },
        {
          "indexed": true,
          "internalType": "address",
          "name": "newOwner",
          "type": "address"
        }
      ],
      "name": "OwnershipTransferred",
      "type": "event"
    },
    {
      "inputs": [],
      "name": "aaController",
      "outputs": [
        {
          "internalType": "contract IAAController",
          "name": "",
          "type": "address"
        }
      ],
      "stateMutability": "view",
      "type": "function"
    },
    {
      "inputs": [
        {
          "internalType": "uint256",
          "name": "_orderId",
          "type": "uint256"
        }
      ],
      "name": "completeDelivery",
      "outputs": [],
      "stateMutability": "nonpayable",
      "type": "function"
    },
    {
      "inputs": [
        {
          "internalType": "uint256",
          "name": "_minParticipants",
          "type": "uint256"
        },
        {
          "internalType": "enum IeAAts.FeeType",
          "name": "_feeType",
          "type": "uint8"
        }
      ],
      "name": "createOrder",
      "outputs": [
        {
          "internalType": "uint256",
          "name": "",
          "type": "uint256"
        }
      ],
      "stateMutability": "nonpayable",
      "type": "function"
    },
    {
      "inputs": [],
      "name": "deliveryFee",
      "outputs": [
        {
          "internalType": "uint256",
          "name": "",
          "type": "uint256"
        }
      ],
      "stateMutability": "view",
      "type": "function"
    },
    {
      "inputs": [
        {
          "internalType": "enum IeAAts.DeliveryStatus",
          "name": "_status",
          "type": "uint8"
        }
      ],
      "name": "getOrdersByStatus",
      "outputs": [
        {
          "components": [
            {
              "internalType": "address[]",
              "name": "participants",
              "type": "address[]"
            },
            {
              "internalType": "uint256",
              "name": "totalAmount",
              "type": "uint256"
            },
            {
              "internalType": "uint256",
              "name": "minParticipants",
              "type": "uint256"
            },
            {
              "internalType": "enum IeAAts.FeeType",
              "name": "feeType",
              "type": "uint8"
            },
            {
              "internalType": "enum IeAAts.DeliveryStatus",
              "name": "status",
              "type": "uint8"
            }
          ],
          "internalType": "struct IeAAts.OrderData[]",
          "name": "",
          "type": "tuple[]"
        }
      ],
      "stateMutability": "view",
      "type": "function"
    },
    {
      "inputs": [
        {
          "internalType": "uint256",
          "name": "_orderId",
          "type": "uint256"
        },
        {
          "internalType": "uint256",
          "name": "_amount",
          "type": "uint256"
        }
      ],
      "name": "joinOrder",
      "outputs": [],
      "stateMutability": "nonpayable",
      "type": "function"
    },
    {
      "inputs": [],
      "name": "orderCount",
      "outputs": [
        {
          "internalType": "uint256",
          "name": "",
          "type": "uint256"
        }
      ],
      "stateMutability": "view",
      "type": "function"
    },
    {
      "inputs": [
        {
          "internalType": "uint256",
          "name": "",
          "type": "uint256"
        }
      ],
      "name": "orders",
      "outputs": [
        {
          "internalType": "uint256",
          "name": "totalAmount",
          "type": "uint256"
        },
        {
          "internalType": "uint256",
          "name": "minParticipants",
          "type": "uint256"
        },
        {
          "internalType": "enum IeAAts.FeeType",
          "name": "feeType",
          "type": "uint8"
        },
        {
          "internalType": "enum IeAAts.DeliveryStatus",
          "name": "status",
          "type": "uint8"
        }
      ],
      "stateMutability": "view",
      "type": "function"
    },
    {
      "inputs": [],
      "name": "owner",
      "outputs": [
        {
          "internalType": "address",
          "name": "",
          "type": "address"
        }
      ],
      "stateMutability": "view",
      "type": "function"
    },
    {
      "inputs": [],
      "name": "renounceOwnership",
      "outputs": [],
      "stateMutability": "nonpayable",
      "type": "function"
    },
    {
      "inputs": [],
      "name": "tokenAddress",
      "outputs": [
        {
          "internalType": "address",
          "name": "",
          "type": "address"
        }
      ],
      "stateMutability": "view",
      "type": "function"
    },
    {
      "inputs": [
        {
          "internalType": "address",
          "name": "newOwner",
          "type": "address"
        }
      ],
      "name": "transferOwnership",
      "outputs": [],
      "stateMutability": "nonpayable",
      "type": "function"
    }
  ],
  "bytecode": "0x6080604052600060035534801561001557600080fd5b5060405161139e38038061139e833981016040819052610034916100dd565b61003d33610075565b600280546001600160a01b039485166001600160a01b0319918216179091556004805493909416921691909117909155600555610120565b600080546001600160a01b038381166001600160a01b0319831681178455604051919092169283917f8be0079c531659141344cd1fd0a4f28419497f9722a3daafe3b4186f6b6457e09190a35050565b6001600160a01b03811681146100da57600080fd5b50565b6000806000606084860312156100f257600080fd5b83516100fd816100c5565b602085015190935061010e816100c5565b80925050604084015190509250925092565b61126f8061012f6000396000f3fe608060405234801561001057600080fd5b50600436106100b45760003560e01c80639d76ea58116100715780639d76ea581461014a578063a85c38ef1461015d578063d1a13986146101ab578063d52fc2d6146101be578063f2fde38b146101d1578063f3cc0f1f146101e457600080fd5b80632453ffa8146100b957806364f2d0fb146100d5578063715018a6146100ea57806382c9804a146100f25780638ce2ec79146101055780638da5cb5b14610125575b600080fd5b6100c260035481565b6040519081526020015b60405180910390f35b6100e86100e3366004610f21565b6101ed565b005b6100e8610511565b6100e8610100366004610f43565b610525565b610118610113366004610f5c565b610949565b6040516100cc9190610fbe565b6000546001600160a01b03165b6040516001600160a01b0390911681526020016100cc565b600454610132906001600160a01b031681565b61019b61016b366004610f43565b60016020526000908152604090206002810154600382015460049092015490919060ff8082169161010090041684565b6040516100cc9493929190611099565b6100c26101b93660046110ca565b610b9e565b600254610132906001600160a01b031681565b6100e86101df366004611113565b610d45565b6100c260055481565b60025460405163b2d0c7ff60e01b81523360048201526000916001600160a01b03169063b2d0c7ff9060240160206040518083038186803b15801561023157600080fd5b505afa158015610245573d6000803e3d6000fd5b505050506040513d601f19601f820116820180604052508101906102699190611130565b6001600160a01b031614156102c55760405162461bcd60e51b815260206004820152601b60248201527f496e76616c6964206163636f756e74206162737472616374696f6e000000000060448201526064015b60405180910390fd5b6000828152600160208181526040808420805480850182558186528386200180546001600160a01b031916339081179091558552928301909152822083905560028101805491928492610319908490611163565b9091555050604051828152339084907f57b5415ffb4622a0a4f6642b5710e9cc41c8f4e61099b2ee5f0cfcb9966aa30d9060200160405180910390a360038101548154141561050c5760005b81548110156104ce5760008260000182815481106103855761038561117b565b6000918252602090912001546004805460025460405163b2d0c7ff60e01b81526001600160a01b03948516938101849052929450908316926323b872dd9291169063b2d0c7ff9060240160206040518083038186803b1580156103e757600080fd5b505afa1580156103fb573d6000803e3d6000fd5b505050506040513d601f19601f8201168201806040525081019061041f9190611130565b6001600160a01b0384811660009081526001880160205260409081902054905160e085901b6001600160e01b03191681529290911660048301523060248301526044820152606401602060405180830381600087803b15801561048157600080fd5b505af1158015610495573d6000803e3d6000fd5b505050506040513d601f19601f820116820180604052508101906104b99190611191565b505080806104c6906111b3565b915050610365565b5060048101805461ff00191661010017905560405183907fa7a3af959104a4171aff6bc7dba44ea31617bff3e9f5074a68fd21a0852c146390600090a25b505050565b610519610dbe565b6105236000610e18565b565b61052d610dbe565b6000818152600160208190526040909120906004820154610100900460ff16600281111561055d5761055d610f84565b146105d05760405162461bcd60e51b815260206004820152603a60248201527f4f72646572206973206e6f7420696e207468652064656c69766572792070726f60448201527f63657373206f7220616c72656164792064656c6976657265642e00000000000060648201526084016102bc565b60005b8154811015610908576000600483015460ff1660018111156105f7576105f7610f84565b141561075b5760008260000182815481106106145761061461117b565b600091825260208220015460038501546005546001600160a01b03909216935061063d916111ce565b6004805460025460405163b2d0c7ff60e01b81526001600160a01b0387811694820194909452939450908216926323b872dd929091169063b2d0c7ff9060240160206040518083038186803b15801561069557600080fd5b505afa1580156106a9573d6000803e3d6000fd5b505050506040513d601f19601f820116820180604052508101906106cd9190611130565b6040516001600160e01b031960e084901b1681526001600160a01b03909116600482015230602482015260448101849052606401602060405180830381600087803b15801561071b57600080fd5b505af115801561072f573d6000803e3d6000fd5b505050506040513d601f19601f820116820180604052508101906107539190611191565b5050506108f6565b6001600483015460ff16600181111561077657610776610f84565b14156108f65760008260000182815481106107935761079361117b565b600091825260208083209091015460028601546001600160a01b0390911680845260018701909252604083205460055492945090916107d291906111f0565b6107dc91906111ce565b6004805460025460405163b2d0c7ff60e01b81526001600160a01b0387811694820194909452939450908216926323b872dd929091169063b2d0c7ff9060240160206040518083038186803b15801561083457600080fd5b505afa158015610848573d6000803e3d6000fd5b505050506040513d601f19601f8201168201806040525081019061086c9190611130565b6040516001600160e01b031960e084901b1681526001600160a01b03909116600482015230602482015260448101849052606401602060405180830381600087803b1580156108ba57600080fd5b505af11580156108ce573d6000803e3d6000fd5b505050506040513d601f19601f820116820180604052508101906108f29190611191565b5050505b80610900816111b3565b9150506105d3565b5060048101805461ff00191661020017905560405182907f2e9a603c28b3f996c22cbdabcb8e35e5db5156b3dd17a96f1fe0fe86c43734c490600090a25050565b6060600060015b60035481116109bc5783600281111561096b5761096b610f84565b600082815260016020526040902060040154610100900460ff16600281111561099657610996610f84565b14156109aa57816109a6816111b3565b9250505b806109b4816111b3565b915050610950565b5060008167ffffffffffffffff8111156109d8576109d861120f565b604051908082528060200260200182016040528015610a1157816020015b6109fe610e68565b8152602001906001900390816109f65790505b509050600060015b6003548111610b9457856002811115610a3457610a34610f84565b600082815260016020526040902060040154610100900460ff166002811115610a5f57610a5f610f84565b1415610b82576040805160008381526001602090815290839020805460c09281028401830190945260a083018481529293849392840182828015610acc57602002820191906000526020600020905b81546001600160a01b03168152600190910190602001808311610aae575b505050918352505060008381526001602081815260408084206002810154838701526003810154918601919091529286905281905260049091015460609092019160ff1690811115610b2057610b20610f84565b8152600083815260016020908152604090912060040154910190610100900460ff166002811115610b5357610b53610f84565b815250838381518110610b6857610b6861117b565b60200260200101819052508180610b7e906111b3565b9250505b80610b8c816111b3565b915050610a19565b5090949350505050565b6000808311610c055760405162461bcd60e51b815260206004820152602d60248201527f4d696e696d756d207061727469636970616e74732073686f756c64206265206760448201526c0726561746572207468616e203609c1b60648201526084016102bc565b6000826001811115610c1957610c19610f84565b1480610c3657506001826001811115610c3457610c34610f84565b145b610c745760405162461bcd60e51b815260206004820152600f60248201526e496e76616c6964204665655479706560881b60448201526064016102bc565b60038054906000610c84836111b3565b9091555050600354600090815260016020908152604080832081519384529183019081905291519091610cb991839190610ea7565b50600060028201556003810184905560048101805484919060ff191660018381811115610ce857610ce8610f84565b021790555060048101805461ff00191690556003546040513391907f4a7c6b1e984c5ac140f100a4898dce117573b0fe14a829675781be4f938a306590610d329088908890611225565b60405180910390a3505060035492915050565b610d4d610dbe565b6001600160a01b038116610db25760405162461bcd60e51b815260206004820152602660248201527f4f776e61626c653a206e6577206f776e657220697320746865207a65726f206160448201526564647265737360d01b60648201526084016102bc565b610dbb81610e18565b50565b6000546001600160a01b031633146105235760405162461bcd60e51b815260206004820181905260248201527f4f776e61626c653a2063616c6c6572206973206e6f7420746865206f776e657260448201526064016102bc565b600080546001600160a01b038381166001600160a01b0319831681178455604051919092169283917f8be0079c531659141344cd1fd0a4f28419497f9722a3daafe3b4186f6b6457e09190a35050565b6040518060a0016040528060608152602001600081526020016000815260200160006001811115610e9b57610e9b610f84565b81526020016000905290565b828054828255906000526020600020908101928215610efc579160200282015b82811115610efc57825182546001600160a01b0319166001600160a01b03909116178255602090920191600190910190610ec7565b50610f08929150610f0c565b5090565b5b80821115610f085760008155600101610f0d565b60008060408385031215610f3457600080fd5b50508035926020909101359150565b600060208284031215610f5557600080fd5b5035919050565b600060208284031215610f6e57600080fd5b813560038110610f7d57600080fd5b9392505050565b634e487b7160e01b600052602160045260246000fd5b60028110610faa57610faa610f84565b9052565b60038110610faa57610faa610f84565b60006020808301818452808551808352604092508286019150828160051b8701018488016000805b8481101561108a57898403603f190186528251805160a0808752815190870181905260c08701918b019085905b8082101561103c5782516001600160a01b03168452928c0192918c019160019190910190611013565b505050898201518a870152888201518987015260608083015161106182890182610f9a565b50506080918201519161107687820184610fae565b509689019694505091870191600101610fe6565b50919998505050505050505050565b84815260208101849052608081016110b46040830185610f9a565b6110c16060830184610fae565b95945050505050565b600080604083850312156110dd57600080fd5b823591506020830135600281106110f357600080fd5b809150509250929050565b6001600160a01b0381168114610dbb57600080fd5b60006020828403121561112557600080fd5b8135610f7d816110fe565b60006020828403121561114257600080fd5b8151610f7d816110fe565b634e487b7160e01b600052601160045260246000fd5b600082198211156111765761117661114d565b500190565b634e487b7160e01b600052603260045260246000fd5b6000602082840312156111a357600080fd5b81518015158114610f7d57600080fd5b60006000198214156111c7576111c761114d565b5060010190565b6000826111eb57634e487b7160e01b600052601260045260246000fd5b500490565b600081600019048311821515161561120a5761120a61114d565b500290565b634e487b7160e01b600052604160045260246000fd5b82815260408101610f7d6020830184610f9a56fea26469706673582212201bac989a655e0259b6c93c25d8f50ae84cb1d74fddbe5c549a9bd6b673993dbf64736f6c63430008090033",
  "linkReferences": {},
  "deployedLinkReferences": {}
}